:020000040800F2
:10000000E80D002005010008B10700080F060008F0
:10001000AD0700082B040008D315000800000000FD
:10002000000000000000000000000000FD0A0008C1
:100030002F04000800000000A5090008910E000828
:100040001F0100081F0100081F0100081F01000810
:100050001F0100081F0100081F0100081F01000800
:100060001F0100081F0100081F0100081F010008F0
:100070001F0100081F0100081F0100081F010008E0
:100080001F0100081F0100081F0100081F010008D0
:100090001F0100081F0100081F0100081F010008C0
:1000A0001F0100081F0100081F0100081F010008B0
:1000B0001F010008F50E0008150F00081F010008B9
:1000C0001F0100081F0100081F0100081F01000890
:1000D0001F0100087D1300081F0100081F01000810
:1000E0001F0100081F0100081F010008DFF810D0E1
:1000F00000F05AF900480047554A0008AFF3008065
:10010000E80D00200648804706480047FEE7FEE766
:10011000FEE7FEE7FEE7FEE7FEE7FEE7FEE7FEE7B7
:10012000950E0008ED00000840EA01039B0703D08C
:1001300009E008C9121F08C0042AFAD203E011F826
:10014000013B00F8013B521EF9D27047D2B201E0E8
:1001500000F8012B491EFBD270470022F6E710B5CC
:1001600013460A4604461946FFF7F0FF204610BD25
:10017000034611F8012B00F8012B002AF9D118468B
:100180007047F0B480EA0102D40F4200B2EB410F95
:1001900002D20246084611464A0042D0C30DDDB2E3
:1001A000C1F3C752AD1A202D35DAC1F3160141F45F
:1001B000000204B15242C5F1200602FA06F12A41BA
:1001C0001044B3EBD05F23D0C4B1012DA0EBC350DA
:1001D00009DCF0BC4FF0004202EAC352DBB200F58A
:1001E000000000F0B3B8400000F1807000EBC35095
:1001F000A0F1807040EAD170490009E0490841EA65
:10020000C071A0EBC35000F50000400800EBC350E4
:10021000F0BC00F092B86142012202EB4101001BE8
:10022000F6E7F0BC704781F00041AAE780F000409B
:10023000A7E780EA010210B502F00043400022D097
:100240004A001FD0010E01EB1261C0F35600C2F349
:10025000560240F4000042F40002A0FB0220000419
:100260007F39140400D0401C50EA124001D44000F1
:10027000491EC2B20C0604EBD010401C4008802A74
:1002800002D003E0002010BD20F00100002900DAB8
:100290000020184310BD30B480EA010202F000458E
:1002A00030F0004221F0004013D090B1C30DD40DC6
:1002B000C2F31601C0F31600E41A41F4000140F441
:1002C00000027D34914201D3641C00E04900002CFF
:1002D00002DA30BC002070474FF400000023914246
:1002E00001D3891A034340084FEA4101F7D151B1C4
:1002F000914202D14FF0004105E002D24FF00101DE
:1003000001E06FF0010103EBC450284430BC00F061
:1003100014B820F00040C10DC0F3160040F40000F6
:100320007F2901DA00207047962903DCC1F196018C
:10033000C84070479639884070470029A8BF704769
:10034000401C490008BF20F00100704710B4B0FA0B
:1003500080FC00FA0CF050EA010404BF10BC7047A6
:1003600049B1CCF1200421FA04F411FA0CF118BFC0
:10037000012121430843A3EB0C01CB1D4FEA00618F
:100380004FEA102042BF002010BC704700EBC35062
:1003900010440029A4BF10BC7047401C490008BF8E
:1003A00020F0010010BC7047064C074D06E0E068E5
:1003B00040F0010394E8070098471034AC42F6D3AC
:1003C000FFF798FE205200084052000870B58D18C3
:1003D00010F8014B14F0030201D110F8012B231186
:1003E00006D110F8013B03E010F8016B01F8016B36
:1003F000521EF9D1ABB110F8012B04F00C048A1A8B
:100400000C2C03D0A2EB84129B1C08E010F8014BCB
:10041000A2EB0422F8E712F8014B01F8014B5B1E36
:10042000F9D5A942D4D3002070BD00BFFEE77047C4
:100430002DE9F0410246002500260020002300247B
:10044000002791F803C00CF00F0591F803C00CF0E1
:10045000100CBCF1000F03D091F802C04CEA050566
:1004600091F800C0BCF1000F31D0146800202BE0DF
:100470004FF0010C0CFA00F3B1F800C00CEA0306CF
:100480009E4220D183004FF00F0C0CFA03F7BC43BF
:1004900005FA03FC4CEA040491F803C0BCF1280FF0
:1004A00006D14FF0010C0CFA00FCC2F814C00AE0AF
:1004B00091F803C0BCF1480F05D14FF0010C0CFAC4
:1004C00000FCC2F810C0401C0828D1D31460B1F859
:1004D00000C0BCF1FF0F34DD546800202EE000F1B5
:1004E000080C4FF0010808FA0CF3B1F800C00CEA50
:1004F00003069E4221D183004FF00F0C0CFA03F744
:10050000BC4305FA03FC4CEA040491F803C0BCF1B7
:10051000280F05D100F1080C08FA0CF8C2F8148075
:1005200091F803C0BCF1480F07D100F1080C4FF05F
:10053000010808FA0CF8C2F81080401C0828CED335
:100540005460BDE8F0810000F0B50A4600230024A5
:100550000021002500F00046B6F1004F02D11D4EEB
:10056000F16901E01B4E7168C0F3034583B200F4EA
:100570004016B6F5401F08D121F07061154E76681F
:1005800026F07066134F7E6012E000F48016B6F518
:10059000801F06D1032606FA05F4A14341F07061DD
:1005A00006E0460D360103FA06F6B14341F07061EC
:1005B00022B1460D360103FA06F6314300F000463B
:1005C000B6F1004F02D1034EF16101E0014E7160BE
:1005D000F0BD0000000001400246002093680B407F
:1005E0000BB1012000E00020704702460020D368D4
:1005F0000B400BB1012000E00020704741617047C3
:10060000016170470AB1016100E04161704700BFBC
:10061000FEE710B500F002F810BD00004AF6AA206F
:1006200001490860704700000030004010B5002408
:100630004FF480711448FFF7CFFF70B9142003F016
:100640009FFE00BF4FF480710F48FFF7C5FF0028E1
:10065000F8D0142003F094FE01244FF400710A48EE
:10066000FFF7BAFF70B9142003F08AFE00BF4FF401
:1006700000710548FFF7B0FF0028F8D0142003F000
:100680007FFE0224204610BD0010014008B5012164
:10069000102000F0A9F948208DF803004FF44070B5
:1006A000ADF8000003208DF8020069460148FFF70D
:1006B000BFFE08BD0010014008B500F0C3F80121DD
:1006C000102000F091F910208DF803006020ADF8A3
:1006D000000003208DF8020069460248FFF7A8FEDB
:1006E00008BD00000010014010B54FF480710648AD
:1006F000FFF784FF80210448FFF782FF4FF4004199
:100700000148FFF77DFF10BD0008014008B5012139
:10071000042000F069F910208DF8030048F28010E1
:10072000ADF8000003208DF8020069460848FFF785
:100730007FFE4FF480710648FFF760FF8021044878
:10074000FFF75EFF4FF400410148FFF759FF08BD76
:100750000008014010B580210648FFF74FFF4FF415
:1007600080710448FFF74CFF4FF400410148FFF748
:1007700047FF10BD0008014010B580210A48FFF76F
:1007800034FFC0F10100C4B2224680210648FFF7C1
:1007900039FF4FF480710448FFF732FF4FF40041F6
:1007A0000148FFF72DFF10BD0008014000BFFEE724
:1007B000704710B54FF4A06000F03AF810BD00008B
:1007C00070B5002100230F22C47804B3154C2468AF
:1007D00004F4E064C4F5E064210AC1F10403CA40F2
:1007E000447804FA03F184781440214309010E4C43
:1007F0000678A155047804F01F050124AC40057863
:100800006D11AD0005F1E025C5F8004109E004785F
:1008100004F01F050124AC40044D0678761145F81C
:10082000264070BD0CED00E000E400E080E100E057
:1008300002490143024A1160704700000000FA05B6
:100840000CED00E000B589B00121022000F0ACF809
:100850000121092000F0C8F801211F48FFF774FEAC
:1008600018208DF823002020ADF8200003208DF8FB
:10087000220008A91948FFF7DBFD194800F07AFCAF
:100880000020ADF81A00ADF8160044F61F60ADF870
:1008900018004720ADF8140000208DF81C0005A9B1
:1008A0000F4800F0CBFC01A800F0BCFC6020ADF8C4
:1008B00004000020ADF80C000120ADF80600002077
:1008C000ADF80A0001A9064800F05AFC01210448CD
:1008D00000F035FB09B000BD00081A00000C014013
:1008E0000004004000B589B00121084600F05CF822
:1008F0000121092000F078F801212348FFF724FEA8
:1009000001212248FFF720FE18208DF8230008203F
:10091000ADF8200003208DF8220008A91C48FFF73D
:1009200087FD4FF0804000F025FC0020ADF81A0054
:10093000ADF8160044F61F60ADF818004720ADF87A
:10094000140000208DF81C0005A94FF0804000F035
:1009500075FC01A800F066FC6020ADF804000020E2
:10096000ADF80C000120ADF806000020ADF80A003B
:1009700001A94FF0804000F003FC0121880700F03E
:10098000DEFA09B000BD00000001180000023000CE
:10099000000C014010B5044621464FF0804000F0A5
:1009A0004BFC10BD7047000029B1064AD2690243D2
:1009B000044BDA6104E0034AD2698243014BDA61F5
:1009C000704700000010024029B1064A1269024334
:1009D000044B1A6104E0034A12698243014B1A6115
:1009E000704700000010024029B1064A9269024394
:1009F000044B9A6104E0034A92698243014B9A6175
:100A0000704700000010024029B1064AD268024334
:100A1000044BDA6004E0034AD2688243014BDA6097
:100A2000704700000010024030B500210022002471
:100A300000232D4D6D6805F00C0121B1042905D06E
:100A4000082923D105E0294D056022E0274D0560E6
:100A50001FE0254D6D6805F47012234D6D6805F497
:100A60008034022505EB92421CB9214D55430560A7
:100A70000BE01D4D6D6805F400351DB11C4D55434F
:100A8000056002E0194D5543056002E0174D056011
:100A900000BF00BF144D6D6805F0F0010909154D48
:100AA0006B5C0568DD4045600F4D6D6805F4E061E5
:100AB000090A104D6B5C4568DD4085600A4D6D6824
:100AC00005F46051C90A0B4D6B5C4568DD40C5609B
:100AD000054D6D6805F44041890B074D6B5CC56899
:100AE000B5FBF3F5056130BD0010024000127A003D
:100AF00000093D001400002024000020704770B55C
:100B000005460E46002404E0285D00F0F7F8601C5E
:100B1000C4B2B442F8DB70BD70B505460E46002481
:100B200004E0285D00F0FAF8601CC4B2B442F8DBBF
:100B300070BD000008B54A48007850B149480078B7
:100B40008DF80000474840788DF8010000204449A6
:100B500008709DF80000012802D14348007838B1A0
:100B60009DF80000022817D13F480078012813D1D2
:100B700003203E49C87001200871002048710621F9
:100B80003A48FFF7C9FF012039494870FFF7E2FDF5
:100B90000120384908601CE09DF80100012818D1A7
:100BA00004203249C8700020087101204871FFF705
:100BB000D1FD314800F0C6F800202B490870012013
:100BC0002B49487006212948FFF7A6FF01202B4931
:100BD00008602A480068E0B19DF80100C8B92848BB
:100BE0000088642807DC26484088642803DC244801
:100BF000808864280ADAFFF777FD002000F0A2F869
:100C000001201949087004201949487000201B4927
:100C100008601848006810B39DF80000012803D14F
:100C200011480078012806D09DF80000022816D14E
:100C30000D48007898B912480088642807DC1048ED
:100C40004088642803DC0E488088642804DAFFF7B3
:100C50004BFD04200649487000200649086008BD85
:100C60002E0000201C030020490000203D00002031
:100C700046000020500000200000B4424C0000203C
:100C80005A00002010B501200D4948700D208870D1
:100C90000C480088642802DA0220C87006E009487F
:100CA0008088642802DA01200549C87003210648BB
:100CB000FFF725FF05210248FFF72EFF10BD0000BA
:100CC000380000205A0000204600002010B5022005
:100CD000054948700D2088700320C870052102481E
:100CE000FFF71AFF10BD00003800002010B50321E7
:100CF0000148FFF704FF10BD4600002010B5044670
:100D00002146054800F061FC00BF8021024800F048
:100D10008EFB0028F9D010BD0038014010B5044604
:100D20002146054800F051FC00BF8021024800F038
:100D30007EFB0028F9D010BD0048004010B5FFF739
:100D4000D1FD10BD2DE9F04104460A492046FFF7C8
:100D5000A2FA80460849FFF76CFA07460749FFF7F1
:100D600010FA0646FFF7D5FA85B22846FFF712FEBD
:100D7000BDE8F081000034430000FA440000FA436B
:100D800010B500F001F810BD0CB5002001900090E6
:100D90003348006840F480303149086000BF304873
:100DA000006800F4003000900198401C0190009809
:100DB00018B90198B0F5A06FF1D12948006800F486
:100DC000003010B10120009001E000200090009858
:100DD000012843D12348006840F0100021490860F1
:100DE0000846006820F0030008600846006840F0EC
:100DF000020008601A48406819494860084640687F
:100E000048600846406840F4806048600846406892
:100E100020F47C1048600846406840F4E8104860C0
:100E20000846006840F08070086000BF0C48006809
:100E300000F000700028F9D00948406820F0030055
:100E4000074948600846406840F00200486000BF1B
:100E50000348406800F00C000828F9D10CBD0000E0
:100E60000010024000200240042808D14FF0E02189
:100E7000096941F004014FF0E022116107E04FF0F1
:100E8000E021096921F004014FF0E022116170476F
:100E90007047000010B51348006840F00100114988
:100EA000086008464068104908400E4948600846F6
:100EB00000680E4908400B4908600846006820F4A5
:100EC000802008600846406820F4FE0048604FF427
:100ED0001F008860FFF754FF4FF00060044908606E
:100EE00010BD0000001002400000FFF8FFFFF6FEFA
:100EF00008ED00E010B50121054800F021F928B106
:100F00000121034800F018F8FFF783FB10BD000033
:100F10000004004010B50121054800F011F930B17E
:100F20000121034800F008F801200249087010BDB3
:100F30000008004044000020CA430282704721B1EB
:100F4000028842F00102028004E002884FF6FE733C
:100F50001A4002807047000010B504466848844279
:100F600008D10121C014FFF74FFD0021E014FFF765
:100F70004BFDC4E0B4F1804F08D101210846FFF7D2
:100F800023FD00210120FFF71FFDB8E05D488442EA
:100F900008D101210220FFF717FD00210220FFF7F1
:100FA00013FDACE05848844208D101210420FFF72A
:100FB0000BFD00210420FFF707FDA0E05348844209
:100FC00008D101210820FFF7FFFC00210820FFF7CE
:100FD000FBFC94E04E48844208D101211020FFF729
:100FE000F3FC00211020FFF7EFFC88E04948844221
:100FF00008D101212020FFF7E7FC00212020FFF786
:10100000E3FC7CE04448844208D101214014FFF70E
:10101000FBFC00216014FFF7F7FC70E03F488442BE
:1010200009D10121C804FFF7EFFC00214FF4002093
:10103000FFF7EAFC63E03A48844209D10121080540
:10104000FFF7E2FC00214FF48010FFF7DDFC56E0D3
:101050003448844209D101214805FFF7D5FC00211D
:101060004FF40010FFF7D0FC49E02F48844208D12C
:1010700001214020FFF7A8FC00214020FFF7A4FC3D
:101080003DE02A48844208D101218020FFF79CFCE2
:1010900000218020FFF798FC31E02548844208D1E8
:1010A00001218015FFF790FC0021A015FFF78CFCB3
:1010B00025E02048844209D101210804FFF7A4FC5F
:1010C00000214FF48030FFF79FFC18E01A4884425B
:1010D00009D101214804FFF797FC00214FF40030AB
:1010E000FFF792FC0BE01548844208D101218804E7
:1010F000FFF78AFC00214FF48020FFF785FC10BD2C
:10110000002C01400004004000080040000C00409A
:10111000001000400014004000340140004C014029
:10112000005001400054014000180040001C0040E5
:1011300000200040004001400044014000480140C0
:1011400030B50246002000230024158A05EA010379
:10115000958905EA010413B10CB1012000E00020DB
:1011600030BD1AB183890B43838102E083898B43AD
:101170008381704701894FF6F872114001817047F1
:1011800070B5002400220023058C4FF6EF76354021
:101190000584028C8388048B48F6FF752C404FF63B
:1011A000FF452C400D884FF6FF7606EA05252C43B7
:1011B0004FF6DF752A400D8906EA05152A434D884A
:1011C00006EA05152A43154DA84202D0144DA8423F
:1011D0001DD14FF67F752A404D894FF6FF7606EAFE
:1011E00005152A434FF6BF752A408D8806EA051576
:1011F0002A434FF6FF352B404FF2FF752B408D8968
:1012000006EA85052B43CD8906EA85052B438380B5
:101210000483CD880587028470BD0000002C014046
:10122000003401400021018041808180C180018122
:1012300041818181C1817047018770470022028806
:101240001D4B98420ED01D4B98420BD0B0F1804FF1
:1012500008D01B4B984205D01A4B984202D01A4B2B
:10126000984204D14FF68F731A404B881A43174B9C
:10127000984207D0164B984204D04FF6FF431A40CD
:10128000CB881A4302808B8883850B8803850A4BA1
:1012900098420BD0094B984208D00E4B984205D08B
:1012A0000D4B984202D00D4B984201D10B7A038628
:1012B0000123838270470000002C0140003401406C
:1012C0000004004000080040000C004000100040F6
:1012D000001400400040014000440140004801402B
:1012E0001FB5FF20224908700120C870FE20087138
:1012F000FF2020490870032048700D208870FE20D0
:10130000887101210420FFF74FFB1B48FFF724FEE3
:1013100041F28730ADF8080041F61F40ADF80400F7
:101320000020ADF80A00ADF806008DF80C0001A908
:101330001148FFF783FF012211460F48FFF711FF05
:101340004FF4A060FFF774FA00208DF801008DF8CB
:1013500002001E208DF8000001208DF80300684671
:10136000FFF72EFA01210448FFF7E9FD1FBD000039
:10137000380000203D0000200008004010B540F279
:101380002551184800F060F801282AD1154800F0CE
:1013900017F9C4B21448007840B9FF2C1CD10020C2
:1013A0001249088001201049087015E00E480078A5
:1013B000012811D1FE2C06D100200B490870012014
:1013C0000B49087008E00B4808490988445407484D
:1013D0000088401C0549088040F22551014800F072
:1013E0000BF810BD0038014036000020340000200A
:1013F0002E0000201C03002010B50022002340F620
:101400006A14A14200D100BF0A1201249440A3B281
:10141000DC43048010BD21B1828942F400528281F4
:1014200004E082894DF6FF731A40828170470246BC
:101430000020B1F5007F00D100BF13880B400BB135
:10144000012000E00020704770B502460024002310
:101450000025002040F66A16B14200D100BFC1F35A
:10146000421501F01F03012606FA03F3012D02D1F4
:101470009689334006E0022D02D1168A334001E0FE
:10148000968A33400C12012606FA04F4168834407A
:1014900013B10CB1012000E0002070BDF0B503468F
:1014A000002400260025002040F66A17B94200D12A
:1014B00000BF1846C1F3421401F01F06012707FAC6
:1014C00006F5012C01D10C3004E0022C01D11030C2
:1014D00000E014301AB107682F43076002E0076884
:1014E000AF430760F0BD00002DE9F04786B0054628
:1014F0000E460024A24600BFA1460027B08900B1D5
:1015000000BF2F462C8A4CF6FF700440F08804433D
:101510002C82AC894EF6F3100440B0883189084320
:10152000718908430443AC81AC8A4FF6FF40044004
:10153000B0890443AC8201A8FFF776FA1F488742BE
:1015400002D1DDF810A001E0DDF80CA0A88900F4BC
:10155000004040B10AEBCA0000EB0A1031684900B4
:10156000B0FBF1F807E00AEBCA0000EB0A103168A3
:101570008900B0FBF1F86420B8FBF0F00401200909
:10158000642101FB1089A88900F4004040B1322099
:1015900000EBC900B0FBF1F000F00700044308E0E5
:1015A000322000EB09106421B0FBF1F000F00F00D5
:1015B00004432C8106B0BDE8F087000000380140EC
:1015C00001468888C0F308007047C1F30802828092
:1015D000704700BFFEE700002DE9FC4106460F46BC
:1015E0000024DA20855D012D03D0022D01D0032DCA
:1015F0002ED16B4601AA0121304600F0D1F90446F4
:101600000198B0F57F0F03D80098B0F57F0F1FD970
:10161000F4B92FB11049304602F0EBF9044617E057
:101620000422FF21304601F024F8044300227021F7
:10163000304601F01EF804430022FF21304601F03D
:1016400018F8044300228021304601F012F80443C8
:101650002046BDE8FC81000056010020F8B5064692
:101660000F460024002500BF01220B21304601F067
:1016700000F8044600220B21304600F0FAFF044334
:101680006A461321304600F032FC0443681CC5B2A0
:101690009DF8000000F0070018B1032D01DA002CBE
:1016A000E2D0032D01DB6FF00B042046F8BD0000F3
:1016B00070B592B0054600242CB900228821284636
:1016C00000F0D7FF04460021F02041554FF47A7016
:1016D000A5F852014FF4C870A5F854015A48C5F84E
:1016E00058015A48C5F8D400296202A9284600F0DA
:1016F000BFF8044654B900208DF808008DF80900A1
:10170000402202A905F11000FEF70EFD642005F548
:101710009A7528804FF4617068804FF4FA70A88041
:101720004FF42060288101202877A5F59A750122C1
:101730008021284600F09DFF04430122FF21284616
:1017400000F097FF044300221146284600F091FF65
:10175000044301AA9121284600F0C9FB04439DF8E7
:10176000040085F83A0101220021284600F081FF9B
:1017700004430022FF21284600F07BFF044300229F
:101780008021284600F075FF0443002609E034B9A3
:10179000B1B20122284600F0E5FC044300E002E07B
:1017A000761C062EF3DB00BF2CB90022022128464E
:1017B00000F0D8FC04462CB900220321284600F092
:1017C000D1FC04462CB900220421284600F0CAFCB2
:1017D00004462CB900220521284600F0C3FC04462B
:1017E00034B94FF490120021284600F01CFD044645
:1017F00034B94FF480420121284600F014FD04461C
:1018000034B94FF40C120221284600F00CFD0446B6
:101810002CB900220321284600F005FD04465CB9DE
:10182000FF2085F83001FF220121284600F021FF2A
:101830000446012085F8320114B9002185F81511FC
:10184000204612B070BD0000856B0100A470090035
:1018500070B504460D4600262946204601F024FABC
:101860000646304670BD02460020137C0B70704760
:101870002DE9F04107460D46002429463846FFF77A
:10188000F2FF04462CB905F10801384600F051F882
:1018900004460CB9002028732CB905F11001384614
:1018A00000F0A3FA04462CB905F11401384600F003
:1018B00037F90446E4B9002617E04CB905F12400D5
:1018C00000EB8602B1B2384600F099F8044300E01C
:1018D0000DE044B905F118008219B1B2384600F0A4
:1018E00080F8044300E002E0761C062EE5DB00BF32
:1018F0002CB905F13C01384600F052FA044624B9EF
:10190000291D384600F001F904462046BDE8F08163
:1019100070B506460C46002522460921304600F0E7
:10192000E6FA05461DB9207800F00100207028462F
:1019300070BD7CB506460C46002501AAF82130464C
:1019400000F001FB05462DB96A460421304600F03F
:10195000E4FA054655B9BDF8040028B1BDF80410F5
:101960000098B0FBF1F020602168B16128467CBD91
:10197000F8B505460C4600266A461321284600F0B5
:10198000B6FA06469DF8000000F0070020609DF8BA
:10199000000000F0180008B16FF005063046F8BDF1
:1019A0002DE9F8430746884614461D4600266A4638
:1019B0000E21384600F0C7FA0646BDF800000005C3
:1019C000C008206056B96A460C21384600F0BBFAC0
:1019D0000646BDF800000005C00828603046BDE896
:1019E000F88330B503460020062903DB001F0025DD
:1019F000157003E003F128056C5C147030BD2DE90F
:101A0000F84305460E4617464FF00008C146062E1D
:101A10002FD2DFE806F00307161A1E1F6C6B4FF07B
:101A2000000929E06A464421284600F08CFA8046E5
:101A3000B8F1000F02D1BDF8000044024FF00109D7
:101A40001AE0EC6B4FF0000916E02C6C4FF0000927
:101A500012E000BF6A466421284600F074FA80460E
:101A6000B8F1000F02D1BDF8000044024FF00009A8
:101A700002E06FF0030800BF00BFB8F1000F16D1FD
:101A8000B9F1010F12D144B905F1340050F82640E4
:101A90003C6000210C38815509E03C6005F13400C0
:101AA00040F8264001210C38815500E03C6040465A
:101AB000BDE8F8832DE9FC4105460C460026DA20F6
:101AC000475D042F0DD169462846FFF751FF0646B2
:101AD0000098042802D10120207013E0002020701B
:101AE00010E001AA1421284600F001FA06464EB97A
:101AF0009DF8040000F0010010B10120207001E009
:101B0000002020703046BDE8FC8170B504460D46CB
:101B100000262946204601F0DAFB0646304670BD15
:101B200070B504460D4600262946204601F046FCC5
:101B30000646304670BD70B504460D46002629465F
:101B4000204601F067FC0646304670BD2DE9F04F97
:101B500093B005460C464FF000080C230AAA142146
:101B6000284600F006FA8046B8F1000F7DD100202B
:101B7000A07520609DF833009DF8321000EB012025
:101B800087B2002060609DF82F009DF82E1000EBBA
:101B900001200004C609E6609DF831009DF8301070
:101BA00000EB012080B20F900F98400220619DF859
:101BB0002B009DF82A1000EB01201FFA80F9A4F8F1
:101BC00014909DF828001290B5F852010D9095F8E8
:101BD00031B10D98B0F57A7F2AD00D98784300F591
:101BE000FA704FF47A7190FBF1F087B2288C80B2D2
:101BF0000E90287F10901098D0B10E9800FB09F03D
:101C0000A6EB202040B9BBF1000F02D042F2B82A67
:101C10000DE048F6E02A0AE007FB06F10E9800FB0B
:101C200009F0A6EB2020B1FBF0F01FFA80FA57462E
:101C3000BBF1000F05D0B8102081B807000EE07589
:101C400002E027810020E07511A84B463246CDE91D
:101C500000402846129901F043FD40EA0808B8F117
:101C6000000F02D19DF844002076B8F1000F20D17A
:101C70001C2205F1500103A8FEF756FA2089ADF8A1
:101C80001400E07D8DF823006089ADF816006068CF
:101C90000490E068069020690790A08AADF82000C3
:101CA000207E8DF824001C2203A905F15000FEF7C8
:101CB0003BFA404613B0BDE8F08FF8B506460C4637
:101CC0000025002000906A460121304600F00FF9FF
:101CD00005463DB923469DF800200021304602F01C
:101CE00097FF05463DB9A31C9DF800200121304611
:101CF00002F08EFF05463DB9631C9DF800200221CD
:101D0000304602F085FF05463DB9E31C9DF80020F2
:101D10000321304602F07CFF05463DB9231D9DF8A6
:101D200000200421304602F073FF05462846F8BD26
:101D30002DE9F843804689461546002600240027F1
:101D40006A464946404602F0F0FB0646B6B94FF4F3
:101D50007A710098B0FBF1F404EB4400C0EBC410BE
:101D60000099A1EBC007C7EB074000F5FA704FF4EC
:101D70007A71B0FBF1F000EB044028603046BDE81A
:101D8000F8832DE9F04104460D46164600273246F9
:101D90002946204601F0EFFD07463846BDE8F081B0
:101DA000F8B506460C4600256A460121304600F08B
:101DB0009EF805466DB99DF8000086F830019DF843
:101DC000000000F0800010B10120207001E0002030
:101DD000207015B9217886F84C102846F8BD10B54A
:101DE00002460020137F0B7010BDF8B504460E4666
:101DF00000276A462021204600F0A5F8074677B95B
:101E0000BDF8000020B9256A35600021217706E081
:101E1000BDF80000C50035602562012121773846F4
:101E2000F8BD2DE9F04104460D4616460027012372
:101E300032462946204601F0AFFE07463846BDE847
:101E4000F0812DE9F04104460D4616460027324642
:101E50002946204601F0C6FE07463846BDE8F08117
:101E600038B50546002469462846FFF7FCFC0446C1
:101E700034B99DF8000018B9284600F07CFA0446F1
:101E80001CB9284601F02AFE04462CB99DF8000032
:101E900010B9032085F83201204638BD70B50546DB
:101EA0000E4600240021284600F090F804461CB994
:101EB0002846FFF7D5FF044624B931462846FFF7E8
:101EC00045FE044624B900212846FFF7C7FB044617
:101ED000204670BD08B5014600200022009202E0B5
:101EE000009A521C0092009AFA2AF9D308BD2DE9F3
:101EF000F04704460D461646002794F85C9132469A
:101F00002946484602F016F88046B8F1000F01D085
:101F10006FF013073846BDE8F0872DE9F047044617
:101F20000D461646002794F85C91324629464846ED
:101F300002F012F88046B8F1000F01D06FF01307DD
:101F40003846BDE8F0872DE9F04704460D461646B1
:101F5000002794F85C9132462946484602F02DF855
:101F60008046B8F1000F01D06FF013073846BDE886
:101F7000F0872DE9F0470546884691461E464FF00A
:101F8000000A402E01D36FF0030A95F85C713346C6
:101F90004A464146384601F0FCFF04460CB16FF05A
:101FA000130A5046BDE8F0872DE9F04105460C467E
:101FB0000026274604EBD770C0F347028A21284643
:101FC00000F057FB06463046BDE8F081024600208F
:101FD00003290BD003DC39B101290BD105E0142909
:101FE00005D0152906D103E000BF00BF00BF00BF28
:101FF000117402E06FF0070000BF00BF70472DE9C9
:10200000F0478046894617461E46DDF820A000248A
:10201000B9F1000F02D06FF00904A0E0142F0CD129
:10202000BAF1000F01D1102500E001252A468421D4
:10203000404600F01EFB044691E0152F5AD10122C4
:10204000FF21404600F015FB0443002211464046A4
:1020500000F00FFB04430022FF21404600F009FB83
:10206000044301228021404600F003FB0443022286
:102070008521404600F0FDFA04430422FF2140463A
:1020800000F0F7FA04430022CD21404600F0F1FAB7
:1020900004431122CC21404600F0EBFA044307220E
:1020A000FF21404600F0E5FA04430022BE214046ED
:1020B00000F0DFFA04430622FF21404600F0D9FA7F
:1020C00004430922CC21404600F0D3FA0443002205
:1020D000FF21404600F0CDFA04430122FF21404693
:1020E00000F0C7FA044300221146404600F0C1FA4E
:1020F000044334E0A4B9052E0ED2DFE806F0030550
:1021000007090B0000250AE0012508E0022506E08A
:10211000032504E0042502E06FF00A0400BF00BFBD
:102120002CB92A460A21404600F0A3FA044664B9B5
:10213000BAF1000F01D1002500E010252B46EF2257
:102140008421404600F06CFA044614B9DA2000F805
:10215000086024B900214046FFF780FA0446204673
:10216000BDE8F0872DE9F05F04460D4616464FF0B6
:102170000009CB460027BA46062D02DB6FF00309A3
:1021800041E02EB94FF0000B00274FF0010A06E0A6
:1021900004F1340050F825B04FF0000A0127062D55
:1021A0002DD2DFE805F003060E1114202820075574
:1021B00028E0CBF34F224421204600F070FA8146FC
:1021C00020E084F82A701DE084F82B701AE04FEAB2
:1021D0004A604FEA10684346FE226021204600F024
:1021E0001FFA81460EE04FEA0A704FEA1068434634
:1021F000EF226021204600F013FA814602E06FF0E2
:10220000030900BF00BFB9F1000F09D126B90021B1
:1022100004F12800415503E0012104F12800415553
:102220004846BDE8F09F2DE9F04105460E461446AC
:10223000002705F1280010F80680B8F1000F03D13F
:102240000C3040F8264026E0062E1BD2DFE806F0D0
:1022500003050D0F11126C6317E0C4F34F224421E4
:10226000284600F01CFA07460FE0EC630DE02C64F2
:102270000BE000BFC4F34F226421284600F00FFAA0
:10228000074602E06FF0030700BF00BF1FB905F16A
:10229000340040F826403846BDE8F08170B5044669
:1022A0000D4600262946204601F0F4FE064630463B
:1022B00070BD2DE9F84307460D46904600260020E4
:1022C000009000246A4601213846FFF710FE0646BA
:1022D0009DF80040002E36D1B8F1010F19D1052D1F
:1022E00013D2DFE805F00306090C0F0044F01004D8
:1022F0000EE044F028040BE044F0040408E044F04D
:10230000400405E044F0800402E06FF0030600BFE3
:1023100019E0052D13D2DFE805F00306090C0F00C4
:1023200004F0EF040EE004F0D7040BE004F0FB042B
:1023300008E004F0BF0405E004F07F0402E06FF061
:10234000030600BF00BF9DF80000844210D02EB9E4
:1023500022460121384600F08CF906460EB987F86E
:1023600030412EB9D7F8149049463846FFF796FF0A
:102370003046BDE8F8832DE9FC41064600240127DC
:1023800001A93046FFF76FFA01228021304600F0A4
:1023900070F904460122FF21304600F06AF9044634
:1023A00000221146304600F064F9044696F83A21BE
:1023B0009121304600F05DF90446012200213046AB
:1023C00000F057F904460022FF21304600F051F991
:1023D000044600228021304600F04BF904469DF867
:1023E000040020B1012821D0032841D12FE001228F
:1023F0000021304600F03DF904460097ACB90025B5
:1024000000BF2DB16A4600213046FFF770FD04463B
:102410006D1C9DF800003840B84202D10CB9C82D9F
:10242000EFD3C82D01D36FF0060424E024B90121B5
:102430003046FFF7D1F8044602220021304600F072
:1024400018F9044614B9042086F8320113E024B9BF
:1024500001213046FFF7C0F804460422002130462F
:1024600000F007F9044614B9042086F8320102E0AE
:102470006FF0070400BF00BF2046BDE8FC810000EC
:102480002DE9F04397B005460024402107A8FDF749
:1024900064FE00200690059081460027049003907A
:1024A00000260121284600F06DFC044695F81371C2
:1024B00095F81461012E05DC01D1202F02D846B910
:1024C0000C2F06D904AA03A9284601F08BFB044669
:1024D00005E032463946284601F070FE0446DFF832
:1024E0003C814CB995F85091B9F1000F02D1D5F863
:1024F0004C8101E0DFF8248124B94146284601F0EF
:1025000078FA044644B900200423024601460090AC
:102510002846FFF774FD04468CB90122FF212846A6
:1025200000F0A7F8044606AA84212846FFF70BFD11
:1025300004430022FF21284600F09BF8044324B9FD
:10254000BDF818000001C5F8D40024B907A9284631
:10255000FFF78EF904464CB905A92846FFF7D8F9CC
:1025600004461CB99DF8140085F831012CB94022AD
:1025700007A905F11000FDF7D7FD54B905AA0121FF
:102580002846FFF7B4FC04461CB99DF8140085F8F2
:1025900030012CB9002211462846FFF78AFE044676
:1025A0002CB9002202212846FFF783FE044614B905
:1025B000032085F832012CB902AA00212846FFF732
:1025C000E0FB04461CB99DF80810E82041552CB9E1
:1025D00002AA01212846FFF7D4FB04461CB99DF846
:1025E0000810E02041552CB901AA03212846FFF725
:1025F0009FFB044614B9E420019941512CB901AA6A
:1026000004212846FFF794FB044614B9DC20019905
:102610004151204617B0BDE8F08300006300002060
:102620002DE9F84F0446894615461E46002794F8C2
:102630005CA16A464946504601F07CFC8046B8F1F0
:10264000000F01D06FF0130787B99DF800002840F4
:10265000304300909DF800204946504601F00FFE9F
:102660008046B8F1000F01D06FF013073846BDE87F
:10267000F88F2DE9F04704460D461646002794F8DA
:102680005C9132462946484601F0F9FD8046B8F192
:10269000000F01D06FF013073846BDE8F0872DE931
:1026A000F04704460D461646002794F85C913246E2
:1026B0002946484601F005FE8046B8F1000F01D0DA
:1026C0006FF013073846BDE8F0872DE9F047044660
:1026D0000F4690461D464FF00009CA46402D01D3D3
:1026E0006FF0030994F85C612B4642463946304648
:1026F00001F0D3FD8246BAF1000F01D06FF013094B
:102700004846BDE8F08700002DE9FF4F90B017461E
:10271000DDF8788012200F904FF480400E90422018
:102720000D9006200C9007200B9000200090109830
:10273000B0F854010A901098D0F858010990DDE9DA
:10274000091000FB01FA0AF180004FEA102A0A98EA
:102750000AFB00FA00256FB11198800201900198E0
:1027600000EB5705B5FBF7F505EB45056D4305F5A2
:102770000040050C1D99139848430890089800F5EF
:102780000040000C089008984043089008F500406D
:10279000000C02900298C01C0621B0FBF1F00290E0
:1027A0000298C0EBC00002900298B0F5803F02D3BF
:1027B000374807900DE008F103000621B0FBF1F85F
:1027C000C8EBC80808F50040000C07900798404384
:1027D000079040F22710059005984043059041F27C
:1027E000041004900498083000090490DDE90410F6
:1027F000401A0590059800EB4000000106900698ED
:1028000000F50050800B0690DDE9071044181F9872
:1028100004EB50041F98B4FBF0F4A403069804EBF7
:1028200050040698B4FBF0F46C4304F5FA704FF4CE
:102830007A71B0FBF1F4240104F5FA70B0FBF1F405
:102840004FF04009B9F1000F05D00AEB5900B0FB79
:10285000F9F0039001E000200390039801F0B3F831
:10286000834624B10AEB5400B0FBF4F600E00026E6
:10287000304601F0A8F806462098C0F800B0B345ED
:1028800001D920980660009814B0BDE8F08F0000D0
:102890000000F0FFE0B5064640F277634FF41062A7
:1028A00002FB01F5A5FB0307E0BD00002DE9FF4F8A
:1028B000A7B004464FF4487026904FF41670259048
:1028C0004220249041F25C202390A14822904FF4B2
:1028D000704021909F4820909F481F904FF40040E7
:1028E0001E904FF448101D9040F277601C9000BF7E
:1028F000206A1290289800694FF47A714843000CBE
:1029000013902898C06809900AAA2046289901F0D7
:1029100001F812AA2046289901F010F810904FF4FF
:102920007A710A9800FB01F707F50040070C12982E
:10293000484311901198B0F5481F02D94FF4481040
:1029400011901098002842D1DC2000591A90E02004
:10295000005D05902046059A1A9900F0FFF807904F
:10296000E42000591990E820005D04902046049A64
:10297000199900F0F3F806900320089005980828AC
:1029800001D1022008900898C002DDE90612114426
:1029900000FB01FB0BF5FA704FF47A71B0FBF1FB11
:1029A00040F277600BFB00FB0BF5FA70B0FBF1FB1C
:1029B0000A988030000A0A900A9800FB0BF01B90DE
:1029C0001B988030000A1B900A9800020A90109809
:1029D00018B110982BB0BDE8F08F4FB95C49299819
:1029E00001600846C4F8400100212A980160ACE06B
:1029F0001B9808B901201B904FF448701890139849
:102A00000004B0FBF7F65348864200D906464FF45F
:102A1000167046431B9901EB4101880000F0D3FF7B
:102A200040001790289800894B4948431690119808
:102A3000C0EB074000F5FA704FF47A71B0FBF1F08B
:102A40000F90119800EB074000F5FA70B0FBF1F120
:102A50000E910F9800020F90DDE90E12B2FBF1F01B
:102A6000002801DB014600E0414214911498000265
:102A7000149041F25C211698B0FBF1F51498C0F562
:102A80008030454305F50040050C05F580356D089F
:102A90006D43AD0B189805FB00F909F500404FEAAE
:102AA000104909FB09F9B2460AF500404FEA104AFD
:102AB0000AFB0AFA09EB0A000D900D9800F083FF5B
:102AC0000C900C9800040C900C9832306421B0FBF0
:102AD000F1F11798B1FBF0F840F6B53008FB00F8BB
:102AE00041F2883080444000B8FBF0F8B8F5704FF0
:102AF00001D94FF4704808FB08F941F2041A09EBB8
:102B00000A0000F060FF0B904FF47A710B98484375
:102B100015902FB11B9818B10D491598884201D90D
:102B20000B48159029991598086029980068C4F8F1
:102B3000400118992A982B468DE8420803902046B8
:102B4000DDE90921FFF7E0FD1090109842E7000051
:102B5000AE878F02666666009A9906002DE9F043FB
:102B600007460C46154600BF29463846FFF792FE39
:102B7000814609F5FA704FF47A71B0FBF1F6084618
:102B8000604300EB5600B0FBF6F84046BDE8F0832A
:102B90002DE9F04307460C4615464FF0000829463C
:102BA0003846FFF777FE814609F5FA704FF47A71DF
:102BB000B0FBF1F604FB06F000EB5600B0FBF1F8B9
:102BC0004046BDE8F08300002DE9F04704460D467D
:102BD000164600270221204600F0D4F80746AFB978
:102BE00094F8F180B8F1000F06D10020287009A0F8
:102BF000007886F8400009E0F220005D287004F1BA
:102C0000F309494606F14000FDF7B2FA3846BDE83F
:102C1000F08700000000000001460020CAB20B0A45
:102C20009A40501C7047014600204A1C5206100E64
:102C30007047F8B506460024002283213046FFF78E
:102C400018FD0443A4B9002500BF6A46832130461D
:102C5000FFF74DF904469DF8000000B904B102E009
:102C60006D1CC82DF1D300BFC82D01D36FF0060431
:102C7000012283213046FFF7FCFC04432046F8BDC7
:102C800010B5014600200022002361B14A1E02E077
:102C900052085C1CA3B222F0FF04002CF8D11446A9
:102CA00063F31F24A0B210BD7CB506460C46002578
:102CB000224669463046FFF787FF0546002D26D19C
:102CC0009DF8000020B91EA12046FDF751FA19E039
:102CD0009DF80000222808DC9DF80000202804D080
:102CE0001AA12046FDF744FA0CE09DF800002728C1
:102CF00004DA19A12046FDF73BFA03E019A12046AA
:102D0000FDF736FA1DA104F12000FDF731FA35B9BF
:102D100004F16002C0213046FFF7E9F805466DB9BD
:102D200001AAC2213046FFF7E2F80546012084F8E7
:102D300061009DF80400000984F8620028467CBD0B
:102D4000564C35334C30582054533000564C3533A4
:102D50004C30582054533100564C35334C305820A9
:102D600054533200564C35334C30582045533120A3
:102D70006F72206C6174657200000000564C353330
:102D80004C3058002DE9F04F93B005460F46002413
:102D900000200E900D900C900B90824683464FF4CD
:102DA000C8500A904FF00009002009900290F020CE
:102DB000465D072E7ED0012280212846FFF759FC70
:102DC00004430122FF212846FFF753FC044300225D
:102DD00011462846FFF74DFC04430622FF212846F2
:102DE000FFF747FC044312AA83212846FFF77FF828
:102DF00004439DF8480040F0040283212846FFF771
:102E000038FC04430722FF212846FFF732FC044325
:102E1000012281212846FFF72CFC04432846FFF7B6
:102E200059F80443012280212846FFF722FC04437D
:102E300007F00100002855D006F00100002851D10C
:102E40006B2294212846FFF714FC04432846FFF721
:102E5000F0FE044311AA90212846FFF75EF80443D0
:102E60001198C0F306200E901198C0F3C0300D9059
:102E7000242294212846FFF7FCFB04432846FFF751
:102E8000D8FE044311AA90212846FFF746F80443D0
:102E90001198000E8DF800001198000C8DF80100BB
:102EA0001198000A8DF802001198C0B28DF8030045
:102EB000252200E0A4E194212846FFF7DAFB044331
:102EC0002846FFF7B6FE044311AA90212846FFF7D3
:102ED00024F804431198000E8DF804001198000C9A
:102EE0008DF8050007F0020002287DD106F00200EF
:102EF0000028FAD1022294212846FFF7BAFB0443A6
:102F00002846FFF796FE044310AA90212846FEF7B4
:102F1000EEFF04437B2294212846FFF7AAFB0443DB
:102F20002846FFF786FE04430FAA90212846FEF7A5
:102F3000DEFF0443772294212846FFF79AFB0443DF
:102F40002846FFF776FE044311AA90212846FEF793
:102F5000E4FF04437F21119801EA50608DF81000CE
:102F60001198C0F386408DF811001198C0F3C62067
:102F70008DF812001198C0F306108DF81300119807
:102F80000007400E1290782294212846FFF771FB2B
:102F900004432846FFF74DFE044311AA902128461A
:102FA000FEF7BBFF04437F21119801EA50709DF8A2
:102FB00048100844C0B28DF814001198C0F3865030
:102FC0008DF815001198C0F3C6308DF816001198D1
:102FD000C0F306208DF817001198C0F346008DF855
:102FE00018001198C00700E05FE0400E12907922AF
:102FF00094212846FFF73DFB04432846FFF719FEBE
:10300000044311AA90212846FEF787FF04437F213D
:10301000119801EA90609DF848100844C0B28DF8FC
:1030200019001198C0F3C6408DF81A001198C0F32A
:1030300006308DF81B001198C0F346108DF81C0067
:103040001198C006400E12907A2294212846FFF76C
:1030500010FB04432846FFF7ECFD044311AA90211E
:103060002846FEF75AFF04437F21119801EA907029
:103070009DF848100844C0B28DF81D001198C0F3A7
:10308000C6508DF81E001198C0F306408DF81F0041
:103090001198C0F346208DF820001198C0F38600E7
:1030A0008DF8210000208DF8220007F0040004288C
:1030B00073D106F0040000286FD17B2294212846AA
:1030C000FFF7D7FA04432846FFF7B3FD04430CAAE1
:1030D00090212846FEF721FF04437C2294212846B4
:1030E000FFF7C7FA04432846FFF7A3FD04430BAAE2
:1030F00090212846FEF711FF0443732294212846AD
:10310000FFF7B7FA04432846FFF793FD044311AADB
:1031100090212846FEF701FF044311980006000C99
:103120000990742294212846FFF7A3FA0443284605
:10313000FFF77FFD044311AA90212846FEF7EDFE1C
:1031400004431199099840EA11600990752294216D
:103150002846FFF78EFA04432846FFF76AFD04432A
:1031600011AA90212846FEF7D8FE044311980006C4
:103170004FEA1049762294212846FFF77AFA044351
:103180002846FFF756FD044311AA90212846FEF772
:10319000C4FE0443119849EA10690022812128469F
:1031A000FFF767FA04430622FF212846FFF761FA7A
:1031B000044312AA83212846FEF799FE04439DF892
:1031C000480000F0FB0283212846FFF752FA04432F
:1031D0000122FF212846FFF74CFA04430122002177
:1031E0002846FFF746FA04430022FF212846FFF74E
:1031F00040FA0443002280212846FFF73AFA0443AC
:10320000002C60D1072E5ED007F00100A8B106F0B7
:10321000010090B90E9885F813010D9885F81401F6
:10322000A04607E01DF8081005F5957000F8081095
:1032300008F10108B8F1060FF4DB07F002000228DC
:1032400011D106F0020070B99DF84010F1204155EF
:103250009DF83C10F220415505F1F300039004A9BC
:103260000398FCF785FF07F00400042824D106F03A
:10327000040008BB4FF48C700C994151001D0B9950
:1032800041510998400202904FF4907102984851C0
:103290004FF0000BB9F1000F0CD00A98A9EB000A0F
:1032A0004FF47A700AFB00F04FEA101BCBF10000DC
:1032B0000FFA80FBC5F80CB046EA070012909DF8A3
:1032C0004810F0204155204613B0BDE8F08F2DE99D
:1032D000F04F87B006460C4600254FF4FA60039085
:1032E00040F276774FF470784FF4257940F24E2A09
:1032F00040F2B22B4846029040F226200190002076
:10330000009007EB0800206005A93046FEF7D5FCC9
:1033100005461DB1284607B0BDE8F08F9DF81400A2
:1033200028B99DF8150010B99DF8160008B303AA36
:103330000221304601F0F9F80546D5B99DF8140090
:1033400020B1206803995144084420609DF816007C
:1033500038B1206803995944022202FB0100206021
:1033600007E09DF8150020B12068039949440844FE
:10337000206075B99DF8170058B16A4603213046A0
:1033800001F0D3F805462168009A029810440844D9
:10339000206075B99DF8180058B104AA0421304680
:1033A00001F0C3F805462168049A019810440844C6
:1033B00020600DB9216871612846ACE72DE9F8431A
:1033C00006460C46002540F2FF774FF480586A46C7
:1033D00028213046FEF7B7FD0546BDB9BDF800000F
:1033E000C0F30B000090BDF80000B84208DDBDF846
:1033F0000000A0EB080000B2FA214843206005E07D
:10340000BDF8000000B2FA21484320602846BDE81C
:10341000F883000070B504460D460026204614F1DE
:10342000080F54D01DDC10F1140F64D00CDC10F127
:10343000630F77D010F1320F6FD010F1280F64D0E6
:1034400010F11E0F73D15BE010F10C0F30D010F1B2
:103450000B0F4BD010F10A0F43D010F1090F66D1BA
:103460003AE0C01D082862D2DFE800F02C271D18C2
:10347000130E090432A12846FCF77AFE5CE033A162
:103480002846FCF775FE57E037A12846FCF770FE8A
:1034900052E03AA12846FCF76BFE4DE03BA12846DE
:1034A000FCF766FE48E040A12846FCF761FE43E0D9
:1034B00042A12846FCF75CFE3EE046A12846FCF708
:1034C00057FE39E046A12846FCF752FE34E048A1F9
:1034D0002846FCF74DFE2FE04CA12846FCF748FE9D
:1034E0002AE04FA12846FCF743FE25E051A12846DB
:1034F000FCF73EFE20E056A12846FCF739FE1BE013
:1035000059A12846FCF734FE16E05DA12846FCF7D9
:103510002FFE11E006E000E009E05FA12846FCF77D
:1035200027FE09E063A12846FCF722FE04E067A11C
:103530002846FCF71DFE00BF00BF304670BD0000EE
:103540004E6F204572726F720000000043616C691B
:1035500062726174696F6E205761726E696E672066
:103560004572726F720000004D696E20636C697065
:10357000706564206572726F72000000556E64653C
:1035800066696E6564206572726F7200496E76615D
:103590006C696420706172616D6574657273206519
:1035A00072726F72000000004E6F7420737570703D
:1035B0006F72746564206572726F7200496E746513
:1035C0007272757074206E6F7420436C65617265E1
:1035D0006400000052616E6765206572726F720050
:1035E00054696D65206F7574206572726F7200008A
:1035F0004D6F6465206E6F7420737570706F727498
:103600006564206572726F72000000004275666624
:10361000657220746F6F20736D616C6C0000000028
:103620004750494F206E6F74206578697374696ED6
:10363000670000004750494F2066756E6374206E26
:103640006F7420737570706F727465640000000091
:10365000436F6E74726F6C20496E7465726661633D
:1036600065204572726F7200496E76616C696420E4
:10367000436F6D6D616E64204572726F7200000061
:103680004469766973696F6E206279207A65726F1A
:10369000204572726F7200005265666572656E63D6
:1036A00065205370616420496E6974204572726FA1
:1036B000720000004E6F7420696D706C656D656EF0
:1036C000746564206572726F72000000556E6B6ED7
:1036D0006F776E204572726F7220436F64650000D1
:1036E0002DE9FF4F8FB007469946DDE91CA600255E
:1036F00000200E900D900C900B900A90099008906D
:103700000024029001901098C0F3C3045CB1052C12
:1037100009D0072C07D00C2C05D00D2C03D00E2C73
:1037200001D00F2C02D14FF0010B01E04FF0000B44
:103730002DB90122FF213846FEF79BFF05462DB922
:1037400002AAB6213846FEF7FEFB0546BDF8080082
:10375000400200902DB90022FF213846FEF789FF74
:1037600005460098C7F848012DB90BAA0021384634
:10377000FEF737F905469DF82C00D0B1CDB901AB65
:1037800007AA51463846FFF791F8054615B9019842
:10379000AAF80A006DB906AA00213846FEF72FF9EB
:1037A0000546069828B1DDE90610884201D90120B6
:1037B0000E902DB909AA02213846FEF712F90546E6
:1037C0009DF8240070B16DB905AA02213846FEF7B4
:1037D00016F90546059828B105990098884201D93F
:1037E00001200D902DB908AA03213846FEF7F9F8FB
:1037F00005469DF82000C8B1C5B9B9F1000F02D146
:103800000020039004E011980002B0FBF9F003904F
:1038100004AA03213846FEF7F2F80546049828B1B9
:10382000DDE90301884201D201200C9035BBBBF1D8
:10383000010F02D1FF20307028E0012C03D0022CB0
:1038400001D0032C02D1052030701FE0062C01D0DE
:10385000092C02D10420307018E0082C04D00A2C66
:1038600002D00D98012802D1032030700EE0042C04
:1038700002D00C98012802D10220307006E00E9888
:10388000012801D1307001E000203070307810B98B
:103890000020AAF80A000AAA01213846FEF7A1F87A
:1038A000054675BB9DF82C0010B10E98012802D179
:1038B0004FF0010801E04FF0000887F82E80042C3B
:1038C00002D09DF8280010B94FF0010801E04FF038
:1038D000000887F82F809DF8240010B10D9801286A
:1038E00002D14FF0010801E04FF0000887F8308066
:1038F0009DF8200010B10C98012803D14FF0010869
:1039000002E003E04FF0000887F83180284613B04A
:10391000BDE8F08FF8B507460D4614460026E86866
:1039200020606A462946384600F008F806461EB967
:1039300020680099084420603046F8BD2DE9F8431E
:1039400005460E461446002700202060694628469A
:10395000FEF745FA07465FB99DF8000040B1D5F87B
:103960002080B08A00FB08F909F18000000A20607D
:103970003846BDE8F883F8B507460C4615460026DC
:1039800014B1012C0ED106E06A4650213846FEF7EC
:10399000AEFA064609E06A4670213846FEF7A7FAF5
:1039A000064602E06FF0030600BF00BF26B99DF88F
:1039B0000000FFF738F928703046F8BD10B500F068
:1039C00069FE002010BD024600204FF0804100E05B
:1039D00089089142FCD809E04318934204D843185F
:1039E000D21A01EB500000E0400889080029F3D109
:1039F00070472DE9FF5F06460D4600200390002426
:103A000063E02F5D641CFF2F44D1285D0290641C8D
:103A1000029830B1012811D002281CD0032834D1DB
:103A200026E015F80480641C15F80490641C09EB6A
:103A300008201FFA80FAA6F834A12AE015F80480BD
:103A4000641C15F80490641C09EB08201FFA80FA26
:103A5000A6F836A11DE015F80480641C15F8049042
:103A6000641C09EB08201FFA80FAA6F838A110E0C0
:103A700015F80480641C15F80490641C09EB0820F8
:103A80001FFA80FAA6F83CA103E06FF00300039050
:103A900000BF1AE0042F15DC285D0190641C4FF074
:103AA000000B05E0285D0DF80B00641C0BF1010B09
:103AB000BB45F7DB3B466A4630460199FEF705FEFB
:103AC000039002E06FF003000390285D10B10398AB
:103AD000002896D0039804B0BDE8F09FF8B50646DC
:103AE000002400200090002500BF69463046FDF705
:103AF000E1FF044604B10EE09DF80000012800D16A
:103B000009E06D1CC82D02D36FF0060403E03046B7
:103B1000FEF7E0F9E9E700BF2046F8BD2DE9F04FD8
:103B200085B005460E4690461F460024A146A24693
:103B3000A3460FB195F83091022201212846FEF7E5
:103B400098FD044624B90021284600F094F9044663
:103B50008CB9B8F1010F0ED10120002104AA5B46F7
:103B6000CDE90026CDE9021052460146284600F074
:103B700039FA044601E0002030704CB947B14A469A
:103B800001212846FEF775FD04460CB985F83091F1
:103B9000204605B0BDE8F08F2DE9F047054689467F
:103BA00016461F460024A04695F8308100233A4669
:103BB0004946284600F07FF9044634B900233A46C6
:103BC00031462846FFF7AAFF044644B94246012180
:103BD0002846FEF74EFD04460CB985F83081204694
:103BE000BDE8F0872DE9F74F94B0044600254FF06B
:103BF000B40B032011902C201090002600200F9071
:103C00000E904FF42067804681464FF0060A0C90D4
:103C10000B900A900990089007900690B4F83C71B8
:103C200000BF06E0002104F5927000F8091009F1C8
:103C30000109D145F6D30122FF212046FEF719FDE7
:103C400005462DB900224F212046FEF712FD0546FC
:103C50002DB92C224E212046FEF70BFD05462DB92D
:103C60000022FF212046FEF704FD05462DB95A46E5
:103C7000B6212046FEF7FDFC05462DB90022802125
:103C80002046FEF7F6FC054635B9002308AA09A927
:103C90002046FFF781FF05468DB900260F96B046F6
:103CA0000FA91198CDE900ABCDE90260049141461E
:103CB00004F592739A1D204600F088FB0546002DFE
:103CC00044D10F9E0DA9204600F062FF0546002D4D
:103CD0003AD1BDF83400B84236DDA94606E00021ED
:103CE00004F5927000F8091009F10109D145F6D3E5
:103CF00000E0761C0BEB060000F0A0FE10B9109857
:103D00008642F6D34FF001080FA91198CDE900AB18
:103D1000CDE902600491414604F592739A1D204654
:103D200000F054FB05468DB90F9E0DA9204600F00A
:103D30002FFF054655B9BDF83400B84206DD012015
:103D400006901198079001E04FF00008002D7CD1FB
:103D5000BDF83400B84278DA08F0FF0006901198F8
:103D60000790524604F5927112A8FCF7DDF9BDF8F0
:103D70003410C81B002801DB014600E041420B91D2
:103D800000200A905DE00EAB3246514604F5957076
:103D900000F08BFB0E98401C10B96FF0310553E01A
:103DA0000798401C07900E990BEB010000F046FEAF
:103DB000404502D06FF0310546E00E9E3246514636
:103DC00004F5927000F058FB054635B9761C04F5F1
:103DD0009271204600F040FF054605B134E00DA980
:103DE000204600F0D5FE054605B12DE0BDF83410A3
:103DF000C81B002801DB014600E041420C91BDF8E0
:103E00003400B84215DDDDE90B1088420DD912A946
:103E1000204600F021FF0546524612A904F5927093
:103E2000FCF782F90798401E079001200A9008E0ED
:103E30000BE00C980B90524604F5927112A8FCF717
:103E400073F90A9800289ED000BF85B91599079884
:103E50000860169906980870012184F815111598C4
:103E6000017884F813111698017884F81411284603
:103E700017B0BDE8F08F70B506460D46002434B982
:103E800045F0010200213046FEF7F3FB04461CB961
:103E90003046FFF723FE044624B900213046FDF7E3
:103EA000DDFB04462CB9002211463046FEF7E1FB4B
:103EB0000446204670BD2DE9F04F85B005460E46FC
:103EC00090461F460024A146A246A3460020049027
:103ED0000FB195F83091012211462846FEF7C9FB33
:103EE000044624B940212846FFF7C5FF044684B99B
:103EF000B8F1010F0DD10020012104AA5B46CDE9E4
:103F00000062CDE902105246284600F06BF80446E4
:103F100001E0002030704CB947B14A4601212846E3
:103F2000FEF7A7FB04460CB985F83091204605B092
:103F3000BDE8F08F2DE9F04104460D4616460027F6
:103F40004FF00108434632462946204600F021F84A
:103F500007463846BDE8F081F8B505460E461446DA
:103F6000002704236A463146284600F012F8074627
:103F70009DF8000000069DF8011000EB01409DF83F
:103F8000021000EB01209DF8031008442060384621
:103F9000F8BD2DE9F04106460F4614461D464FF088
:103FA000000823462A463946304600F0F7FB08B1A0
:103FB0004FF001084046BDE8F081F8B505460E46D1
:103FC0001446002702236A4631462846FFF7E1FFE0
:103FD00007469DF801009DF8001000EB01202080AD
:103FE0003846F8BD2DE9F84F80460D4691469A4671
:103FF000DDE90BB60D9F0024002000900122FF2177
:104000004046FEF736FB0443002211464046FEF7C9
:1040100030FB04430022FF214046FEF72AFB044305
:1040200075B12EB1CB2140460A9AFDF760FF0443DB
:10403000AFB16A46EE214046FDF759FF04430EE05A
:104040002EB14A46CB214046FEF713FB044337B15D
:1040500053468022EE214046FEF7E2FA0443012255
:10406000FF214046FEF705FB0443012200214046A4
:10407000FEF7FFFA04430022FF214046FEF7F9FA5B
:1040800004439DF8000000F0EF008BF8000020468C
:10409000BDE8F88F2DE9F04F89B080460F46002625
:1040A0004FF4FA6006904FF4A5694FF4707A4FF41C
:1040B000257B40F24E20059040F2B22004904FF450
:1040C0002570039040F2262002900020019044F6D3
:1040D0002060009000250098874204D22E1F3046B1
:1040E00009B0BDE8F08F09EB0A003C1A07A9404669
:1040F000FDF7E3FD0646002E3BD19DF81C0030B9CC
:104100009DF81D0018B99DF81E00002831D006AAA0
:104110000221404600F009FA06460EB13046DFE7BC
:104120009DF81C0040B1DDE905010D18A54201D242
:10413000641B01E06FF003060EB13046D0E79DF836
:104140001E0050B10699049808444500A54201D2CA
:10415000641B0EE06FF003060BE09DF81D0040B1FC
:10416000069800EB0B05A54201D2641B01E06FF03D
:1041700003060EB13046B3E79DF81F0070B101AAE7
:104180000321404600F0D1F90646019903980D1825
:10419000A54201D2641B01E06FF0030666B99DF8E9
:1041A000200048B10298241A22460421404600F01B
:1041B0005FFD0646C8F81470304691E72DE9F04FD0
:1041C00087B0044689461646002500274FF0B40AFA
:1041D0004FF0060B2C2006900122FF212046FEF70F
:1041E00048FA05462DB900224F212046FEF741FA34
:1041F00005462DB92C224E212046FEF73AFA0546F7
:104200002DB90022FF212046FEF733FA05462DB9CD
:104210005246B6212046FEF72CFA05464FF000081C
:1042200006E0002104F5927000F8081008F101087A
:10423000D845F6D34EB100E07F1C0AEB070000F032
:10424000FDFB10B906988742F6D305A804F59273D2
:104250009A1D3146CDE900BACDE902790490204695
:1042600000F0B4F8054635B9012184F8151184F839
:10427000139184F81461284607B0BDE8F08FF7B5B4
:1042800004460D4600260127012302AA294620469E
:1042900000F003F806463046FEBD2DE9F041064623
:1042A0000F4614461D464FF0000823462A4639465D
:1042B000304600F081FB08B14FF001084046BDE8F0
:1042C000F081F8B506460C461546002728128DF8F1
:1042D0000000E8B28DF80100204604EBD0714910CF
:1042E000A4EB4101012910D101236A462146304641
:1042F000FFF7D3FF0746601CC1B201230DF1010295
:104300003046FFF7CAFF074606E002236A46214609
:104310003046FFF7C2FF07463846F8BD02E008C83E
:10432000121F08C1002AFAD170477047002001E02F
:1043300001C1121F002AFBD17047000010B56FF0B9
:104340000400FCF791FD0A4800680A49B0FBF1F04F
:10435000094908700846007800EB4001C1EBC01025
:104360004FF6FF7101EAC0000449088010BD00004B
:104370000000002000127A00280000202A000020FF
:104380000146114A12884A434FF0E0235A61002245
:104390009A611A46126942F001021A6100BF4FF099
:1043A000E022106900F001021AB100F48032002A04
:1043B000F5D04FF0E022126922F001024FF0E02325
:1043C0001A6100229A6170472A0000202DE9FF4FF0
:1043D00085B0884691461D46DDF850B0DDF848A00E
:1043E0000026CDF80CB05F46002004901FE003AB20
:1043F0003A465146484600F058F80398401C10B918
:104400006FF0310617E0039A1399881800F016FB35
:10441000404502D06FF031060DE0039F3A46514609
:10442000284600F029F87F1C0498401C0490159938
:1044300004988842DBD300BF1698076026B9294646
:10444000059800F009FC064696B901A9059800F008
:1044500060F80646002408E0285D01A9095D88424D
:1044600002D06FF0310602E0641C5445F4D300BF63
:10447000304609B0BDE8F08FF0B503460C46002089
:104480000825B2FBF5F1B2FBF5F705FB1726A142B3
:1044900002D36FF0310007E05F5C4FF0010C0CFAC3
:1044A00006FC47EA0C075F54F0BD2DE9F0470646CD
:1044B0000F4608214FF000094FF0FF3AC3F800A063
:1044C000B2FBF1FCB2FBF1FA01FB1A28604619E0DD
:1044D0000024355C604502D145FA08F544460DE0FC
:1044E00005F0010ABAF1000F06D04FF0010900FBF8
:1044F000014AC3F800A003E06D10641C8C42EFD3A6
:1045000000BF401CB84202D2B9F1000FE0D0BDE8B4
:10451000F08770B505460C4606232246B021284692
:10452000FDF727FD0646304670BD2DE9F04F87B0F8
:1045300082460D46174600240020059083460490CD
:1045400081461DB1012D01D0022D1AD106AA0021EC
:104550005046FDF716FC04462CB905AA46215046E4
:10456000FDF7C5FC04469DF81400FEF755FB1FFA45
:1045700080F89DF8182041465046FEF709FB834617
:104580005EE0032D21D106AA00215046FDF7F9FB7C
:104590000446002C54D106AA00215046FDF7F1FB39
:1045A00004462CB904AA51215046FDF7CCFC044620
:1045B000BDF81000FEF730FB86B29DF8182031469A
:1045C0005046FEF7E5FA83463AE0042D38D101A9BA
:1045D0005046FDF772FB00269DF8070088B106AA39
:1045E00000215046FDF7CDFB044654B904AA5121E1
:1045F0005046FDF7A8FC0446BDF81000FEF70CFB82
:1046000086B22CB906AA01215046FDF7BAFB044632
:104610005CB903AA71215046FDF795FC0446BDF82C
:104620000C00FEF7F9FA1FFA80F9A9EB06001FFA51
:1046300080F99DF8182049465046FEF7A9FA8346AE
:10464000C7F800B0204607B0BDE8F08F10B50121D3
:104650000B48FBF7D3FF00F015F802210848FBF7E1
:10466000CDFF00F00FF801210548FBF7C9FF00F06E
:1046700009F801210248FBF7C1FF00F003F810BD63
:10468000000801401E2000BF011EA0F10100FBD167
:104690007047000008B501218020FCF7A5F9012032
:1046A000ADF8000002208DF8020010208DF8030004
:1046B00069462B48FBF7BCFE0220ADF800008DF8E0
:1046C000020014208DF8030069462548FBF7B0FE70
:1046D0000420ADF8000002208DF8020010208DF8B3
:1046E000030069461E48FBF7A3FE0820ADF8000052
:1046F00002208DF8020010208DF80300694618484A
:10470000FBF796FE1020ADF8000002208DF80200A5
:1047100010208DF8030069461148FBF789FE202020
:10472000ADF8000002208DF8020010208DF8030083
:1047300069460B48FBF77CFE04210948FBF75EFF46
:1047400008210748FBF75AFF10210548FBF756FFE1
:1047500020210348FBF752FF1420FFF711FE08BD8C
:104760000008014010B501210B48FBF747FFFFF798
:1047700089FF02210848FBF743FFFFF783FF012170
:104780000548FBF73DFFFFF77DFF01210248FBF7DE
:1047900035FFFFF777FF10BD000801402DE9F0411C
:1047A00004460D4616461F463B46324629462046DD
:1047B00000F006F810B10120BDE8F0810020FBE711
:1047C0002DE9F04104460F4615461E4600F086F8D6
:1047D00010B10120BDE8F081204600F053F800F050
:1047E000C5F818B100F0A4F80120F3E7384600F04E
:1047F00049F800F0BBF8FFF745FF00F06FF844F010
:10480000010000F03FF800F0B1F80BE000F010F804
:104810003070012D02D1FFF7A5FF01E0FFF716FF71
:10482000761C6D1E002DF1D100F082F80020D1E73A
:1048300070B50825002402211148FBF7E1FE14E0C1
:104840006006040E01210E48FBF7D8FEFFF71AFFA1
:1048500001210B48FBF7D4FEFFF714FF02210848A3
:10486000FBF7BAFE08B144F00104281EA5F10101CE
:10487000CDB2E5D101210248FBF7C0FE204670BD54
:104880000008014070B5044608251BE001211248CC
:10489000FBF7B4FEFFF7F6FE04F0800020B1022122
:1048A0000D48FBF7ADFE03E002210B48FBF7A6FE27
:1048B0006006040EFFF7E6FE01210748FBF7A0FEA5
:1048C000FFF7E0FE281EA5F10101CDB2DED10121E6
:1048D0000148FBF793FE70BD0008014010B50221AE
:1048E0001248FBF78DFE01211048FBF789FEFFF708
:1048F000C9FE02210D48FBF76FFE08B9012010BD6B
:1049000002210A48FBF77AFEFFF7BCFE02210748A6
:10491000FBF762FE08B10120F1E701210348FBF734
:104920006DFEFFF7AFFE0020E9E700000008014040
:1049300010B501210C48FBF761FEFFF7A3FE022131
:104940000948FBF75BFEFFF79DFE01210648FBF7D8
:1049500057FEFFF797FE02210348FBF751FE0220A6
:10496000FFF70EFD10BD00000008014010B5012149
:104970001048FBF743FEFFF785FE02210D48FBF7C9
:104980003FFEFFF77FFE01210A48FBF739FEFFF7E4
:1049900079FE02210748FBF71FFE28B101210548D7
:1049A000FBF72CFE012010BD01210248FBF726FE7B
:1049B0000020F8E7000801402DE9F04104460D46CB
:1049C00016461F463B4632462946204600F006F86A
:1049D00010B10120BDE8F0810020FBE72DE9F04196
:1049E00005460E4617469846FFF778FF10B101209E
:1049F000BDE8F0812846FFF745FFFFF7B7FF18B184
:104A0000FFF796FF0120F3E73046FFF73BFFFFF784
:104A1000ADFF00240BE018F80400FFF733FFFFF7A9
:104A2000A5FF18B1FFF784FF0120E1E7641CBC4239
:104A3000F1D3FFF77DFF0020DAE7000001460120F7
:104A40008A09034B53F8223003B900207047000055
:104A50000C030020FBF730FEFCF770F9FBF716FEA5
:104A60000020FCF76FF9012042490870FBF74EFE69
:104A7000FFF764FCFBF79DFE4FF4E13000F0E8F92E
:104A80004FF4E13000F092F900F0A2FAFCF728FCB4
:104A90000420394948706CE0FBF7C8FD01282BD190
:104AA00000BFFBF757FE3548FCF74CF900203149B1
:104AB0000870012030494870FCF708F9FCF716F936
:104AC000FBF7B4FD0228ECD12D480088642807DCF0
:104AD0002B484088642803DC29488088642804DA4D
:104AE000FBF702FE0020FCF72DF904202249487054
:104AF00001202449C87000E000BF00BF00F042FA66
:104B0000FCF718F82048007848B1FCF7BBF8002003
:104B10001D4908701D48007808B1FBF72DFE1848A4
:104B2000008864280BDAFBF715FE1448FCF70AF935
:104B300000201049087003200F49487019E0104800
:104B40004088642803DA01201049087011E00C48FD
:104B5000808864280DDA00200C490870FBF7C4FD3A
:104B60000020FCF7EFF801200249087004200249F8
:104B7000487091E749000020460000200000B44240
:104B80005A0000203800002044000020450000208A
:104B9000F0B587B005460E460024002795F8307121
:104BA0002CB9C02201212846FDF763FD044624B933
:104BB00069462846FDF772F904462CB90122FF2107
:104BC0002846FDF756FD04462CB93246B621284644
:104BD000FDF7B9F904462CB90022FF212846FDF75C
:104BE00048FD044644B93A4601212846FDF741FDF7
:104BF00004460CB985F83071204607B0F0BD10B5F9
:104C000088B0044669462046FCF795FF08B010BD01
:104C100030B50446002000251D70052917D2DFE8B5
:104C200001F003070B0F1300C2F300151D7011E014
:104C3000C2F3C0051D700DE0C2F380051D7009E0D0
:104C4000C2F380151D7005E0D5091D7002E06FF0FC
:104C5000030000BF00BF30BD70B505460C460623FB
:104C60002246B0212846FDF730FD0646304670BD8D
:104C70002DE9F04F85B006460D46174600241DB1BC
:104C8000012D01D0022D23D104AA00213046FDF7C9
:104C900078F804469CB99DF8102039463046FDF757
:104CA0005DFF1FFA80FABAF5807F02DD4FF0FF0842
:104CB00003E0AAF1010000F0FF08A6F8D880002C5C
:104CC0006FD1424646213046FDF7D3FC044668E0EA
:104CD000032D23D1ACB904AA00213046FDF751F8C9
:104CE00004469DF8102039463046FDF737FF1FFA7D
:104CF00080F94846FDF7C4FF0390BDF80C10D8209A
:104D0000815334B9BDF80C2051213046FDF7C7FC62
:104D10000446002C45D1E420875142E0042D3ED1C9
:104D200069463046FCF7C9FF4FF000099DF80300C3
:104D300090B104AA00213046FDF723F804465CB97F
:104D400003AA51213046FDF7FEF80446BDF80C00D9
:104D5000FDF762FF1FFA80F92CB904AA0121304641
:104D6000FDF70FF80446E4B99DF8102039463046A7
:104D7000FDF7F4FE1FFA80FB0BEB09001FFA80FB26
:104D80005846FDF77DFF02902CB971213046029AFA
:104D9000FDF785FC044624B9DC20875101E06FF063
:104DA0000304204605B0BDE8F08F000010B586B0C2
:104DB000044601212348FBF7F7FD4FF48060ADF86E
:104DC000140003208DF8160018208DF8170005A98F
:104DD0001D48FBF72DFB4FF40060ADF814000420D4
:104DE0008DF8170005A91848FBF722FB27208DF83E
:104DF000000003208DF801008DF8020001208DF8DD
:104E000003006846FBF7DCFC01940020ADF80800C5
:104E1000ADF80A00ADF80C00ADF810000C20ADF8AC
:104E20000E0001A90948FCF75FFB012240F2255161
:104E30000648FCF733FB01210448FCF7ECFA06B006
:104E400010BD000008000400000C014000480040B4
:104E500010B586B00446012144F20400FBF7C4FDFE
:104E60004FF40070ADF8140003208DF816001820E0
:104E70008DF8170005A91C48FBF7DAFA4FF480609B
:104E8000ADF8140004208DF8170005A91648FBF7AB
:104E9000CFFA25208DF8000003208DF801008DF851
:104EA000020001208DF803006846FBF789FC01949D
:104EB0000020ADF80800ADF80A00ADF80C00ADF820
:104EC00010000C20ADF80E0001A90848FCF70CFBFF
:104ED000012240F225510548FCF7E0FA0121034880
:104EE000FCF799FA06B010BD0008014000380140F7
:104EF0002DE9F84305460E460024A046374695F8AE
:104F00005C01B84202D10020BDE8F883002288216C
:104F10002846FDF7AEFB044614B10120804625E08B
:104F20006A46C0212846FDF70EF8044614B1022057
:104F300080461BE0BDF800004EF6AA61884214D1FD
:104F400039462846FDF730F8044614B10320804660
:104F50000CE085F85C716A46C0212846FCF7F3FF37
:104F6000044614B10420804600E000BF14B120467E
:104F7000FFF745FEB8F1000F01D02046C4E700BF9F
:104F8000C2E7000010B50C490C4800F021F90C49AB
:104F9000088009490B4800F01BF909494880064977
:104FA000094800F015F9064988800349074800F0D0
:104FB0000FF90349C88010BDC8090020E403002090
:104FC0005A00002044050020A40600200408002008
:104FD00010B50024FEF7F2FC0021084800F016F896
:104FE0000121074800F012F80221064800F00EF8EF
:104FF0000321054800F00AF8204610BDE403002014
:1050000044050020A40600200408002070B50546D1
:105010000E460024522085F85C01012085F85D01D0
:105020004FF4C870A5F85E0136B1012E10D0022EE3
:105030001AD0032E30D123E004213248FBF7E0FAE6
:105040001420FFF79DF954212846FFF751FF23E074
:1050500008212C48FBF7D4FA1420FFF791F95621C8
:105060002846FFF745FF17E010212648FBF7C8FA4E
:105070001420FFF785F958212846FFF739FF0BE088
:1050800020212048FBF7BCFA1420FFF779F95A21B8
:105090002846FFF72DFF00BF00BF2846FCF708FB9E
:1050A000044624B12046FFF7AAFD204670BD1649EC
:1050B0002846FCF7CDFB044624B12046FFF79FFDB0
:1050C0002046F3E7104890F8610001280BD00E4805
:1050D00090F86200012806D06FF004042046FFF724
:1050E0008EFD2046E2E7284600F012F80446074805
:1050F000047024B12046FFF782FD2046D6E700BFAA
:10510000D4E700000008014064090020620000208C
:105110007FB5054600242846FDF7B2F904462CB1B8
:105120002046FFF76CFD204604B070BD6A4601A919
:105130002846FCF776FE044624B12046FFF75FFDC3
:105140002046F1E702AA03A92846FCF77AFE0446A6
:1051500024B12046FFF753FD2046E5E7002128460D
:10516000FCF734FF044624B12046FFF748FD2046F3
:10517000DAE72CB9012200212846FCF7F3FF0446A8
:105180002CB9012211462846FCF7ECFF044634B93D
:105190004FF4804201212846FDF745F8044634B912
:1051A0004FF4901200212846FDF73DF8044624B93B
:1051B00006492846FDF772F8044624B12046FFF759
:1051C0001EFD2046B0E72046AEE70000400D03007C
:1051D0002DE9F04780460C460025A9460026002709
:1051E0000E48007828B10D4890F9000080B2BDE863
:1051F000F08721464046FCF751FE07460FB1B8B292
:10520000F5E7002502E0208906446D1C052DFADB38
:10521000052096FBF0F020812089E8E7620000205D
:1052200040520008000000201C030000CC030008CE
:10523000E85400081C030020CC0A00002C4300089E
:10524000500600A24A040001600901020304060797
:1052500008090C6110000619020406080001000785
:10526000180100FF00FE011F13FF011D301501FF93
:10527000000109000110000111000124010125FFB6
:1052800001751B20094E2C014800013020212036D9
:105290003009015400013104013203014083014609
:1052A00025016000012700015006015100015296BE
:1052B00001560801573001610001620001640001DC
:1052C00065000166A045300B22320147140149FFF9
:1052D000014A6920097A0A017B0001782160201BBC
:1052E00023340142000144FF0145260146050140E7
:1052F00040010E0601201A0143402A200634030112
:10530000354487117520094B09014C05014D0442B4
:10531000301D44000145200147080148280167006D
:105320000170040171010172FE0176000177B7235B
:105330000D0169200680010101F8C6128EE44112B8
:1053400041F3311B51F9106701014F0201FF0E01BA
:10535000000301018401020A01030301040801059D
:10536000C801060301078D0108080109C6010A01E9
:10537000010B02010C00010DD5010E18010F1201E5
:1053800010010111820112000113D5011418011539
:105390001301160301178601180A011909011A08D9
:1053A000011BC2011C03011D8F011E0A011FD51420
:1053B00031010121020122000123D5012418012518
:1053C000220126010127820128000129D5012A187E
:1053D000012B0B012C28012D78012E28012F910182
:1053E000306B34380B01320001330B0134000135CE
:1053F000A10136000137A0013800013904013A2823
:10540000013B30013C0C013D04013E0F013F79019D
:10541000402801411E01422F0143872024080B012F
:10542000460001470BBF2749A77A24064BA6014C2B
:105430000041124EF315B6242F000151800152098C
:1054400001530801540101550001560F015779011C
:105450005809015905015A00015B60015C05015DB5
:10546000D1015E0C015F3CEC142C61D001620B0198
:10547000630301642801651001662A016739016828
:105480000B016902016A28016B10016C2A016D6130
:10549000016E0C016F9534110F01717901720001D9
:1054A000730B01740001750B9E140DA101780001AE
:1054B00079A0017A00017BCB441F0401791D017B97
:1054C0002701960E0197FE0198030199EF019A02B8
:1054D000019B440173070170A425B919A9120A049C
:0854E0005A05B5210800000087
:04000005080000ED02
:00000001FF
