:020000040800F2
:100000004807002091010008BD070008BF0600084E
:10001000B907000849040008030F000800000000A9
:10002000000000000000000000000000FD090008C2
:100030004D04000800000000E5080008E90A000877
:10004000AB010008AB010008AB010008AB010008E0
:10005000AB010008AB01000895040008AB010008E3
:10006000AB010008AB010008AB010008AB010008C0
:10007000AB010008AB010008AB010008AB010008B0
:10008000AB010008AB010008AB010008AB010008A0
:10009000AB010008AB010008AB010008AB01000890
:1000A000AB010008AB010008AB010008AB01000880
:1000B000AB010008AB010008AB010008AB01000870
:1000C000AB010008AB010008AB010008AB01000860
:1000D000AB010008D10C0008AB010008AB0100081F
:1000E000AB010008AB010008AB01000800F002F80A
:1000F00000F03FF80AA090E8000C82448344AAF183
:100100000107DA4501D100F034F8AFF2090EBAE880
:100110000F0013F0010F18BFFB1A43F0010318473B
:10012000540F0000740F0000103A24BF78C878C143
:10013000FAD8520724BF30C830C144BF04680C60ED
:10014000704700000023002400250026103A28BF35
:1001500078C1FBD8520728BF30C148BF0B60704739
:10016000642900F07780002070471FB51FBD10B5CF
:1001700010BD00F037F91146FFF7F7FF00F0D4FE8D
:1001800000F055F903B4FFF7F2FF03BC00F0BBFE2B
:100190000948804709480047FEE7FEE7FEE7FEE71B
:1001A000FEE7FEE7FEE7FEE7FEE7FEE70448054957
:1001B000054A064B70470000ED0A0008ED000008F4
:1001C0004801002048070020480300204803002081
:1001D000704700000FB4044910B503AA029800F05C
:1001E000D3F810BC5DF814FB140000202DE9F04199
:1001F0000E460446002020622046E168884730B35E
:10020000252805D0D4E901219047206A401CF2E757
:10021000E168204600278847050018D0A5F1410075
:10022000192802D820354FF4006732462946204667
:100230002760FFF795FF40B1012804D0F61D26F096
:1002400007060836D8E7361DD6E72846DAE7206ADB
:10025000BDE8F0812DE9F0410646002410687529BB
:10026000314616A510D0AFF30080002802DA4042D4
:1002700013A507E031688A0701D512A502E04907F6
:1002800004D511A5012401E0AFF3008000210A226A
:1002900006F1240709E0B0FBF2FCB0FBF2F302FB2D
:1002A0001C00303078541846491C0028F3D12346EE
:1002B0002A463046BDE8F04100F00CB800000000CE
:1002C0002D0000002B000000200000007047704748
:1002D000704770472DE9F0470D469946924604460F
:1002E00000F124080168880604D5E06921F01001B6
:1002F000216000E00120A84201DD471B00E000274B
:10030000A1697A1902EB0900081AA0612078C006D9
:1003100002D42046AFF30080002608E0D4E9012192
:100320001AF806009047206A401C761C20624E4551
:10033000F4DB2078C0060AD52046AFF3008006E043
:10034000D4E9012130209047206A401C2062381EE9
:10035000A7F10107F4DC07E0D4E9012118F8050052
:100360009047206A401C2062281EA5F10105F3DC9D
:100370002046AFF300802078000602D50220BDE8B9
:10038000F0870120FBE70000074B70B50D467B446A
:1003900000F011F80446284600F020F810B14FF0A4
:1003A000FF3070BD204670BD7B0B000001694A1C08
:1003B00002610878704700B58FB0CDE901310021A6
:1003C000059105497944CDE9031011466846FFF7C8
:1003D0000DFF0FB000BD0000E5FFFFFF007B00F048
:1003E00080007047754600F02BF8AE460500694660
:1003F000534620F00700854618B020B5FFF7D6FE1B
:10040000BDE820404FF000064FF000074FF0000815
:100410004FF0000B21F00701AC46ACE8C009ACE896
:10042000C009ACE8C009ACE8C0098D46704710B5FA
:100430000446AFF300802046BDE81040FFF7A2BE9F
:1004400000487047E800002000BFFEE7704700B595
:10045000034603E04FF47A7000F005F8181EA3F18C
:100460000103F7D100BD00EBC001C9004FF0E0224D
:100470005161002191610521116100BF4FF0E02120
:10048000096901F480310029F8D004214FF0E022FD
:100490001161704710B5012000F01CF880B100BF59
:1004A00043F6982000F050F90821064800F0FAF8C9
:1004B0000028F5D0002000F06FF9012000F004F8CA
:1004C00010BD00000018014001490860704700009D
:1004D00014040140014600200022074B1B6803EA78
:1004E0000102054B14331B680B4013B10AB1012004
:1004F00000E0002070470000000401402DE9F041B9
:10050000024600250026002000230024002791F841
:1005100003C00CF00F0591F803C00CF0100CBCF1F7
:10052000000F03D091F802C04CEA050591F800C015
:10053000BCF1000F31D0146800202BE04FF0010C0B
:100540000CFA00F3B1F800C00CEA03069E4220D179
:1005500083004FF00F0C0CFA03F7BC4305FA03FCC1
:100560004CEA040491F803C0BCF1280F06D14FF007
:10057000010C0CFA00FCC2F814C00AE091F803C0A8
:10058000BCF1480F05D14FF0010C0CFA00FCC2F889
:1005900010C0401C0828D1D31460B1F800C0BCF1D1
:1005A000FF0F34DD546800202EE000F1080C4FF0FE
:1005B000010808FA0CF3B1F800C00CEA03069E42E9
:1005C00021D183004FF00F0C0CFA03F7BC4305FA5E
:1005D00003FC4CEA040491F803C0BCF1280F05D1D8
:1005E00000F1080C08FA0CF8C2F8148091F803C066
:1005F000BCF1480F07D100F1080C4FF0010808FAD0
:100600000CF8C2F81080401C0828CED35460BDE816
:10061000F0810000F0B50A460023002400210025E7
:1006200000F00046B6F1004F02D11D4EF16901E025
:100630001B4E7168C0F3034583B200F44016B6F553
:10064000401F08D121F07061154E766826F0706663
:10065000134F7E6012E000F48016B6F5801F06D1BD
:10066000032606FA05F4A14341F0706106E0460D49
:10067000360103FA06F6B14341F0706122B1460D2E
:10068000360103FA06F6314300F00046B6F1004F9A
:1006900002D1034EF16101E0014E7160F0BD000036
:1006A000000001400246002093680B400BB101207E
:1006B00000E000207047416170470161704700BF52
:1006C000FEE7000010B5002408211348FFF7EAFFF9
:1006D00068B91420FFF7BBFE00BF08210E48FFF7E2
:1006E000E1FF0028F9D01420FFF7B1FE012410210A
:1006F0000948FFF7D7FF68B91420FFF7A8FE00BF2D
:1007000010210548FFF7CEFF0028F9D01420FFF78D
:100710009EFE0224204610BD0018014008B50121AC
:10072000402000F0F1F848208DF803001820ADF8C3
:10073000000003208DF8020069460248FFF7DEFE44
:1007400008BD00000018014010B5044620210548EE
:10075000FFF7B3FF40210348FFF7ADFF204600F04D
:10076000B7F810BD0010014008B500F061F8012194
:10077000102000F0C9F810208DF803006020ADF8BB
:10078000000003208DF8020069460248FFF7B6FE1C
:1007900008BD00000010014010B504464021054886
:1007A000FFF78BFF20210348FFF785FF204600F06D
:1007B0008FF810BD0010014000BFFEE77047000039
:1007C00070B5002100230F22C47804B3154C2468AF
:1007D00004F4E064C4F5E064210AC1F10403CA40F2
:1007E000447804FA03F184781440214309010E4C43
:1007F0000678A155047804F01F050124AC40057863
:100800006D11AD0005F1E025C5F8004109E004785F
:1008100004F01F050124AC40044D0678761145F81C
:10082000264070BD0CED00E000E400E080E100E057
:1008300000B589B00121022000F056F801210920FD
:1008400000F062F801211F48FFF7E4FE18208DF840
:1008500023002020ADF8200003208DF8220008A9F5
:100860001948FFF74BFE194800F07CF90020ADF85D
:100870001A00ADF8160047F22F50ADF818004720C7
:10088000ADF8140000208DF81C0005A90F4800F0F9
:10089000CDF901A800F0BEF96020ADF804000020F9
:1008A000ADF80C000120ADF806000020ADF80A00FC
:1008B00001A9064800F05CF90121044800F046F95E
:1008C00009B000BD00081A00000C014000040040FF
:1008D00010B504462146024800F0A6F910BD0000FC
:1008E000000400407047000029B1064AD269024363
:1008F000044BDA6104E0034AD2698243014BDA61B6
:10090000704700000010024029B1064A9269024374
:10091000044B9A6104E0034A92698243014B9A6155
:10092000704700000010024030B500210022002472
:1009300000232D4D6D6805F00C0121B1042905D06F
:10094000082923D105E0294D056022E0274D0560E7
:100950001FE0254D6D6805F47012234D6D6805F498
:100960008034022505EB92421CB9214D55430560A8
:100970000BE01D4D6D6805F400351DB11C4D554350
:10098000056002E0194D5543056002E0174D056012
:1009900000BF00BF144D6D6805F0F0010909154D49
:1009A0006B5C0568DD4045600F4D6D6805F4E061E6
:1009B000090A104D6B5C4568DD4085600A4D6D6825
:1009C00005F46051C90A0B4D6B5C4568DD40C5609C
:1009D000054D6D6805F44041890B074D6B5CC5689A
:1009E000B5FBF3F5056130BD0010024000127A003E
:1009F00000093D000000002010000020704710B5E5
:100A000000F002F810BD00000CB50020019000902D
:100A10003348006840F480303149086000BF3048F6
:100A2000006800F4003000900198401C019000988C
:100A300018B90198B0F5A06FF1D12948006800F409
:100A4000003010B10120009001E0002000900098DB
:100A5000012843D12348006840F010002149086074
:100A60000846006820F0030008600846006840F06F
:100A7000020008601A484068194948600846406802
:100A800048600846406840F4806048600846406816
:100A900020F47C1048600846406840F4E810486044
:100AA0000846006840F08070086000BF0C4800688D
:100AB00000F000700028F9D00948406820F00300D9
:100AC000074948600846406840F00200486000BF9F
:100AD0000348406800F00C000828F9D10CBD000064
:100AE00000100240002002407047000010B513487B
:100AF000006840F00100114908600846406810494C
:100B000008400E494860084600680E4908400B49F5
:100B100008600846006820F48020086008464068A5
:100B200020F4FE0048604FF41F008860FFF767FF65
:100B30004FF000600449086010BD00000010024042
:100B40000000FFF8FFFFF6FE08ED00E021B102888B
:100B500042F00102028004E002884FF6FE731A4060
:100B60000280704701894FF6F87211400181704789
:100B700070B5002400220023058C4FF6EF76354037
:100B80000584028C8388048B48F6FF752C404FF651
:100B9000FF452C400D884FF6FF7606EA05252C43CD
:100BA0004FF6DF752A400D8906EA05152A434D8860
:100BB00006EA05152A43154DA84202D0144DA84255
:100BC0001DD14FF67F752A404D894FF6FF7606EA14
:100BD00005152A434FF6BF752A408D8806EA05158C
:100BE0002A434FF6FF352B404FF2FF752B408D897E
:100BF00006EA85052B43CD8906EA85052B438380CC
:100C00000483CD880587028470BD0000002C01405C
:100C1000003401400021018041808180C180018138
:100C200041818181C181704701877047002202881C
:100C30001D4B98420ED01D4B98420BD0B0F1804F07
:100C400008D01B4B984205D01A4B984202D01A4B41
:100C5000984204D14FF68F731A404B881A43174BB2
:100C6000984207D0164B984204D04FF6FF431A40E3
:100C7000CB881A4302808B8883850B8803850A4BB7
:100C800098420BD0094B984208D00E4B984205D0A1
:100C90000D4B984202D00D4B984201D10B7A03863E
:100CA0000123838270470000002C01400034014082
:100CB0000004004000080040000C0040001000400C
:100CC0000014004000400140004401400048014041
:100CD00010B540F22551184800F053F801282AD1E8
:100CE000154800F009F9C4B21448007840B9FF2C47
:100CF0001CD100201249088001201049087015E01D
:100D00000E480078012811D1FE2C06D100200B4995
:100D1000087001200B49087008E00B480849098851
:100D2000445407480088401C0549088040F225517A
:100D3000014800F00BF810BD003801401B000020F6
:100D4000180000201A0000202000002010B500220A
:100D5000002340F66A14A14200D100BF0A12012408
:100D60009440A3B2DC43048010BD21B1828942F4D7
:100D70000052828104E082894DF6FF731A4082811D
:100D8000704770B50246002400230025002040F67D
:100D90006A16B14200D100BFC1F3421501F01F0332
:100DA000012606FA03F3012D02D19689334006E0AD
:100DB000022D02D1168A334001E0968A33400C128C
:100DC000012606FA04F41688344013B10CB1012050
:100DD00000E0002070BDF0B5034600240026002589
:100DE000002040F66A17B94200D100BF1846C1F38F
:100DF000421401F01F06012707FA06F5012C01D164
:100E00000C3004E0022C01D1103000E014301AB193
:100E100007682F43076002E00768AF430760F0BD33
:100E20002DE9F04786B005460E460024A24600BFD5
:100E3000A1460027B08900B100BF2F462C8A4CF68E
:100E4000FF700440F08804432C82AC894EF6F31006
:100E50000440B08831890843718908430443AC8158
:100E6000AC8A4FF6FF400440B0890443AC8201A82D
:100E7000FFF75AFD1F48874202D1DDF810A001E0BC
:100E8000DDF80CA0A88900F4004040B10AEBCA00CC
:100E900000EB0A1031684900B0FBF1F807E00AEBFB
:100EA000CA0000EB0A1031688900B0FBF1F8642039
:100EB000B8FBF0F004012009642101FB1089A88926
:100EC00000F4004040B1322000EBC900B0FBF1F06B
:100ED00000F00700044308E0322000EB0910642111
:100EE000B0FBF1F000F00F0004432C8106B0BDE828
:100EF000F08700000038014001468888C0F30800F0
:100F0000704700BFFEE700BF7047000000BF054A02
:100F1000128802F04002002AF9D0C2B2014B1B1D18
:100F20001A80704700380140FFF71EFC4FF4E13093
:100F300000F050F8FFF7F2FB41E0FFF7C3FB012898
:100F400004D143F69820FFF7FFFB38E01C480078F7
:100F500058B11C4800781C490870084601781BA04D
:100F6000FFF738F90020164908701748007806285E
:100F70001CD2DFE800F01B03070C111600201449F7
:100F8000088014E041F27C50114908800FE041F6DE
:100F900064100F4908800AE041F64C500C49088063
:100FA00005E042F234100A49088000E000BF00BFAB
:100FB0003220FFF74CFA06480088FFF7EDFBBCE74C
:100FC0001A000020200000201C00002025640000E2
:100FD0001E00002010B586B00446012144F2040032
:100FE000FFF792FC4FF40070ADF8140003208DF869
:100FF000160018208DF8170005A91C48FFF77EFA87
:101000004FF48060ADF8140004208DF8170005A996
:101010001648FFF773FA25208DF8000003208DF89D
:1010200001008DF8020001208DF803006846FFF7EB
:10103000C7FB01940020ADF80800ADF80A00ADF838
:101040000C00ADF810000C20ADF80E0001A9084806
:10105000FFF7E6FE012240F225510548FFF7BBFEEF
:1010600001210348FFF781FE06B010BD00080140D2
:10107000003801409410000800000020200000000B
:1010800028010008B41000082000002028070000F4
:1010900044010008000000000102030401020304EF
:1010A000060708090204060800000000000000000E
:0410B000000000003C
:04000005080000ED02
:00000001FF
